S01600004D43555F636F6E74726F6C6C65722E7372656386
S113000071C0000081C000007FC000007DC00000FE
S11300107BC0000079C0000077C0000075C00000FC
S113002073C0000071C000006FC000006DC000000C
S11300306BC0000069C0000067C0000065C000001C
S113004063C0000061C000005FC000005DC000002C
S11300505BC0000059C0000057C0000055C000003C
S113006053C0000051C000004FC000004DC000004C
S11300704BC0000049C0000047C0000045C000005C
S113008043C0000041C000003FC000003DC000006C
S1130090D5C1000039C0000037C0000035C00000E1
S11300A033C0000031C000002FC000002DC000008C
S11300B02BC0000029C0000027C0000025C000009C
S11300C023C0000021C000001FC000001DC00000AC
S11300D01BC0000019C0000017C0000015C00000BC
S11300E013C0000011241FBECFEFD1E2DEBFCDBF8D
S11300F000E00CBF26E0A0E0B2E001C01D92A630F3
S1130100B207E1F702D0D9C17BCFCF93DF93CDB74C
S1130110DEB728970FB6F894DEBF0FBECDBF07D069
S1130120BE016F5F7F4F80E090E0D2D0F9CF109294
S1130130CD0080E18093CC0082E08093C80086E00B
S11301408093CA00E9ECF0E080818861808380813B
S1130150806880830895CF93DC014F5F5F4F21E077
S113016030E080E061507109C1E012C0FD01E40F8C
S1130170F51F9081953531F4FD01E40FF51F918150
S11301809A3A29F04F5F5F4F2F5F3F4F01C08C2F8A
S11301904617570714F4882349F38091000290917D
S11301A00102820F931F937899231CF401979C6F8B
S11301B00196909301028093000280910402909131
S11301C00502821B930B9093050280930402CF9146
S11301D00895DC01420F531F64177507E4F0CA0148
S11301E00297281739076CF4FD01E20FF31FBC01D5
S11301F06A0F7B1F90E021919227E617F707D9F742
S113020001C090E04A0F5B1FFA0131978081891782
S113021021F086E0089582E0089581E00895209118
S1130220000230910102409102025091030224170E
S11302303507E1F0E82FF92F80E090E00196D9012D
S1130240AA5FBD4F4C9141932F5F3F4F33783323C7
S11302502CF4215031093C6F2F5F3F4F4091020233
S1130260509103024217530749F7089580E090E044
S113027008951616170694F4E82FF92F20E030E0BD
S11302808191853519F480818A3A59F02F5F3F4F67
S113029062177307A9F78FEF9FEF08958FEF9FEF12
S11302A00895822F932F08959B012D5F3F4F2417AC
S11302B035075CF4FC01E60FF71F9281892F90E06B
S11302C0982F88272381822B08958FEF9FEF08951D
S11302D08F929F92AF92BF92CF92DF92EF92FF9252
S11302E00F931F93CF93DF93CDB7DEB7D4500FB6E0
S11302F0F894DEBF0FBECDBF2091040230910502F9
S1130300253031050CF482C08B015C019E012F5F06
S11303103F4F790180E094E0F9019C011192215052
S11303203040E1F7C7017BDF4C01BC01C701A1DF0D
S11303307C018F3F3FEF930709F46AC0A401BC011D
S1130340CE010196B1DF6C018CE0C816D1043CF0FB
S1130350A701B401CE010196FEDE85E05CC09701E1
S1130360A601B401CE01019634DF863039F4A70129
S1130370B401CE010196EFDE86E04DC0823009F46F
S113038049C0FE01EE0DFF1D8581F501808365E006
S11303906E0D262F30E0A7014C0D5D1D4250510912
S11303A024173507ACF480E091E0980FF801E80FCA
S11303B0F11DA1E0B0E0AC0FBD1FA20FB31F8C91E3
S11303C08083262F290F30E0892F2417350764F303
S11303D0EC0CF12C80910002909101028E0D9F1D76
S11303E0937899231CF401979C6F019690930102D2
S11303F08093000280910402909105028E199F0956
S1130400909305028093040281E005C083E003C059
S113041084E001C082E0DC5F0FB6F894DEBF0FBE5B
S1130420CDBFDF91CF911F910F91FF90EF90DF909F
S1130430CF90BF90AF909F908F9008951F920F928E
S11304400FB60F9211240BB60F922F933F938F93F5
S11304509F93EF93FF9380910202909103029C017A
S11304602F5F3F4F30930302209302022091CE006E
S1130470FC01EA5FFD4F2083809104029091050204
S11304800196909305028093040280910202909158
S113049003028115944024F0109203021092020288
S11304A0FF91EF919F918F913F912F910F900BBEF0
S11104B00F900FBE0F901F901895F894FFCF79
S9030000FC
